{
  "contractName": "CoShoe",
  "abi": [
    {
      "inputs": [],
      "payable": false,
      "stateMutability": "nonpayable",
      "type": "constructor"
    },
    {
      "constant": true,
      "inputs": [
        {
          "internalType": "uint256",
          "name": "",
          "type": "uint256"
        }
      ],
      "name": "shoes",
      "outputs": [
        {
          "internalType": "address",
          "name": "owner",
          "type": "address"
        },
        {
          "internalType": "string",
          "name": "name",
          "type": "string"
        },
        {
          "internalType": "string",
          "name": "image",
          "type": "string"
        },
        {
          "internalType": "bool",
          "name": "sold",
          "type": "bool"
        }
      ],
      "payable": false,
      "stateMutability": "view",
      "type": "function"
    },
    {
      "constant": false,
      "inputs": [
        {
          "internalType": "string",
          "name": "name",
          "type": "string"
        },
        {
          "internalType": "string",
          "name": "image",
          "type": "string"
        }
      ],
      "name": "buyShoe",
      "outputs": [],
      "payable": true,
      "stateMutability": "payable",
      "type": "function"
    },
    {
      "constant": true,
      "inputs": [],
      "name": "checkPurchases",
      "outputs": [
        {
          "internalType": "bool[]",
          "name": "",
          "type": "bool[]"
        }
      ],
      "payable": false,
      "stateMutability": "view",
      "type": "function"
    },
    {
      "constant": true,
      "inputs": [],
      "name": "numberShoesSold",
      "outputs": [
        {
          "internalType": "uint8",
          "name": "",
          "type": "uint8"
        }
      ],
      "payable": false,
      "stateMutability": "view",
      "type": "function"
    },
    {
      "constant": true,
      "inputs": [],
      "name": "numShoes",
      "outputs": [
        {
          "internalType": "uint256",
          "name": "",
          "type": "uint256"
        }
      ],
      "payable": false,
      "stateMutability": "view",
      "type": "function"
    }
  ],
  "bytecode": "0x60806040526706f05b59d3b200006000806101000a81548167ffffffffffffffff021916908367ffffffffffffffff16021790555060008060086101000a81548160ff021916908360ff16021790555034801561005b57600080fd5b5060008090505b60648160ff1610156101a457600160405180608001604052803373ffffffffffffffffffffffffffffffffffffffff168152602001604051806020016040528060008152508152602001604051806020016040528060008152508152602001600015158152509080600181540180825580915050906001820390600052602060002090600402016000909192909190915060008201518160000160006101000a81548173ffffffffffffffffffffffffffffffffffffffff021916908373ffffffffffffffffffffffffffffffffffffffff16021790555060208201518160010190805190602001906101569291906101aa565b5060408201518160020190805190602001906101739291906101aa565b5060608201518160030160006101000a81548160ff0219169083151502179055505050508080600101915050610062565b5061024f565b828054600181600116156101000203166002900490600052602060002090601f016020900481019282601f106101eb57805160ff1916838001178555610219565b82800160010185558215610219579182015b828111156102185782518255916020019190600101906101fd565b5b509050610226919061022a565b5090565b61024c91905b80821115610248576000816000905550600101610230565b5090565b90565b6109f98061025e6000396000f3fe60806040526004361061004a5760003560e01c806303b8be071461004f578063540a2f4f1461007a578063558a2b8b146101cc578063607473cf14610238578063f6095c1514610396575b600080fd5b34801561005b57600080fd5b506100646103c7565b6040518082815260200191505060405180910390f35b6101ca6004803603604081101561009057600080fd5b81019080803590602001906401000000008111156100ad57600080fd5b8201836020820111156100bf57600080fd5b803590602001918460018302840111640100000000831117156100e157600080fd5b91908080601f016020809104026020016040519081016040528093929190818152602001838380828437600081840152601f19601f8201169050808301925050505050505091929192908035906020019064010000000081111561014457600080fd5b82018360208201111561015657600080fd5b8035906020019184600183028401116401000000008311171561017857600080fd5b91908080601f016020809104026020016040519081016040528093929190818152602001838380828437600081840152601f19601f8201169050808301925050505050505091929192905050506103d4565b005b3480156101d857600080fd5b506101e161066e565b6040518080602001828103825283818151815260200191508051906020019060200280838360005b83811015610224578082015181840152602081019050610209565b505050509050019250505060405180910390f35b34801561024457600080fd5b506102716004803603602081101561025b57600080fd5b810190808035906020019092919050505061076f565b604051808573ffffffffffffffffffffffffffffffffffffffff1673ffffffffffffffffffffffffffffffffffffffff168152602001806020018060200184151515158152602001838103835286818151815260200191508051906020019080838360005b838110156102f15780820151818401526020810190506102d6565b50505050905090810190601f16801561031e5780820380516001836020036101000a031916815260200191505b50838103825285818151815260200191508051906020019080838360005b8381101561035757808201518184015260208101905061033c565b50505050905090810190601f1680156103845780820380516001836020036101000a031916815260200191505b50965050505050505060405180910390f35b3480156103a257600080fd5b506103ab610909565b604051808260ff1660ff16815260200191505060405180910390f35b6000600180549050905090565b60018054905060ff16600060089054906101000a900460ff1660ff1610610463576040517f08c379a00000000000000000000000000000000000000000000000000000000081526004018080602001828103825260168152602001807f4e6f206d6f72652073686f657320696e2073746f636b0000000000000000000081525060200191505060405180910390fd5b6000809054906101000a900467ffffffffffffffff1667ffffffffffffffff1634146104f7576040517f08c379a000000000000000000000000000000000000000000000000000000000815260040180806020018281038252601b8152602001807f416d6f756e7420646f6573206e6f74206d61746368207072696365000000000081525060200191505060405180910390fd5b336001600060089054906101000a900460ff1660ff168154811061051757fe5b906000526020600020906004020160000160006101000a81548173ffffffffffffffffffffffffffffffffffffffff021916908373ffffffffffffffffffffffffffffffffffffffff160217905550816001600060089054906101000a900460ff1660ff168154811061058657fe5b906000526020600020906004020160010190805190602001906105aa92919061091f565b50806001600060089054906101000a900460ff1660ff16815481106105cb57fe5b906000526020600020906004020160020190805190602001906105ef92919061091f565b50600180600060089054906101000a900460ff1660ff168154811061061057fe5b906000526020600020906004020160030160006101000a81548160ff0219169083151502179055506000600881819054906101000a900460ff168092919060010191906101000a81548160ff021916908360ff160217905550505050565b6060806001805490506040519080825280602002602001820160405280156106a55781602001602082028038833980820191505090505b50905060008090505b60018054905060ff168160ff161015610767573373ffffffffffffffffffffffffffffffffffffffff1660018260ff16815481106106e857fe5b906000526020600020906004020160000160009054906101000a900473ffffffffffffffffffffffffffffffffffffffff1673ffffffffffffffffffffffffffffffffffffffff16141561075a576001828260ff168151811061074757fe5b6020026020010190151590811515815250505b80806001019150506106ae565b508091505090565b6001818154811061077c57fe5b90600052602060002090600402016000915090508060000160009054906101000a900473ffffffffffffffffffffffffffffffffffffffff1690806001018054600181600116156101000203166002900480601f01602080910402602001604051908101604052809291908181526020018280546001816001161561010002031660029004801561084e5780601f106108235761010080835404028352916020019161084e565b820191906000526020600020905b81548152906001019060200180831161083157829003601f168201915b505050505090806002018054600181600116156101000203166002900480601f0160208091040260200160405190810160405280929190818152602001828054600181600116156101000203166002900480156108ec5780601f106108c1576101008083540402835291602001916108ec565b820191906000526020600020905b8154815290600101906020018083116108cf57829003601f168201915b5050505050908060030160009054906101000a900460ff16905084565b60008060089054906101000a900460ff16905090565b828054600181600116156101000203166002900490600052602060002090601f016020900481019282601f1061096057805160ff191683800117855561098e565b8280016001018555821561098e579182015b8281111561098d578251825591602001919060010190610972565b5b50905061099b919061099f565b5090565b6109c191905b808211156109bd5760008160009055506001016109a5565b5090565b9056fea265627a7a7231582073e5589d61e133580b0dfbbdef4d180d71a339fad48b522ba890971291cbef2664736f6c63430005100032",
  "source": "pragma solidity >=0.5.0;\n\nimport \"../node_modules/openzeppelin-solidity/contracts/token/ERC721/ERC721Full.sol\";\n\n//Non-fungible token\ncontract CoShoe {\n    struct Shoe {\n        address owner;\n        string name;\n        string image;\n        bool sold;\n    }\n\n    //need to convert to wei, can use uint64 to store the wei value\n    uint64 price = (1 ether) / 2;\n\n    //var defined as shoesSold in c. but later referred to as soldShoes? Assume first is correct\n    uint8 shoesSold = 0;\n\n    Shoe[] public shoes;\n\n    //Mint 100 CoShoe tokens\n    constructor() public {\n        for (uint8 i = 0; i < 100; i++) {\n            shoes.push(Shoe(msg.sender, \"\", \"\", false));\n        }\n    }\n\n\n    function buyShoe(string memory name, string memory image) public payable {\n        require(shoesSold < uint8(shoes.length), \"No more shoes in stock\");\n        require(msg.value == price, \"Amount does not match price\");\n        shoes[shoesSold].owner = msg.sender;\n        shoes[shoesSold].name = name;\n        shoes[shoesSold].image = image;\n        shoes[shoesSold].sold = true;\n        shoesSold++;\n    }\n\n     function checkPurchases() public view returns (bool[] memory) {\n        bool[] memory purchases = new bool[](shoes.length);\n        for (uint8 i = 0; i < uint8(shoes.length); i++) {\n            if (shoes[i].owner == msg.sender) {\n                purchases[i] = true;\n            }\n        }\n        return purchases;\n    }\n\n    function numberShoesSold() external view returns (uint8) {\n        return shoesSold;\n    }\n\n    function numShoes() external view returns (uint) {\n        return shoes.length;\n    }\n\n}\n",
  "sourcePath": "/Users/Bingle/CoShoe/contracts/CoShoe.sol",
  "compiler": {
    "name": "solc",
    "version": "0.5.16+commit.9c3226ce.Emscripten.clang"
  },
  "schemaVersion": "3.0.23",
  "updatedAt": "2020-03-03T12:15:43.499Z",
  "networkType": "ethereum",
  "devdoc": {
    "methods": {}
  },
  "userdoc": {
    "methods": {}
  }
}